S0100000537072696E7420392E737265633B
S11300000C9424010C94DF020C9427030C94170421
S11300100C9441010C946F030C9441010C94410124
S11300200C9441010C9441010C9441010C94410144
S11300300C9441010C9441010C945E020C94410116
S11300400C9441010C9441010C9443010C94410122
S11300500C9441010C9441010C9441010C94410114
S11300600C9441010C944101000000000000005F69
S113007000000007000700147F147F14242A7F2A3D
S11300801223130864623649552250000503000008
S1130090001C2241000041221C0014083E081408E0
S11300A0083E0808005030000008080808080060EE
S11300B060000020100804023E5149453E00427F82
S11300C0400042615149462141454B311814127F89
S11300D01027454545393C4A494930017109050312
S11300E03649494936064949291E0036360000007A
S11300F0563600000814224100141414141400414C
S11301002214080201510906324979413E7E111137
S1130110117E7F494949363E414141227F41412276
S11301201C7F494949417F090909013E4149497AEE
S11301307F0808087F00417F41002040413F017F44
S1130140081422417F404040407F020C027F7F041C
S113015008107F3E4141413E7F090909063E415155
S1130160215E7F09192946464949493101017F0128
S1130170013F4040403F1F2040201F3F4038403F48
S11301806314081463070870080761514945430064
S11301907F41410002040810200041417F00040215
S11301A00102044040404040000102040020545435
S11301B054787F48444438384444442038444448BC
S11301C07F3854545418087E0901020C5252523E8E
S11301D07F0804047800447D40002040443D007FB3
S11301E01028440000417F40007C041804787C08F7
S11301F004047838444444387C141414080814144F
S1130200187C7C080404084854545420043F444097
S1130210203C4040207C1C2040201C3C4030403C82
S113022044281028440C5050503C4464544C44001E
S11302300836410000007F00000041360800100825
S1130240081008000000000011241FBECFEFD8E002
S1130250DEBFCDBF11E0A0E0B1E0E6E0F2E202C013
S113026005900D92A037B107D9F723E0A0E7B1E0DC
S113027001C01D92AE3AB207E1F70E9456040C94F5
S113028001110C9400001F920F9200905F000F92D6
S113029011240F931F932F933F934F935F936F9367
S11302A07F938F939F93AF93BF93EF93FF93CF93DA
S11302B0DF93CDB7DEB780917D0190917E010997E0
S11302C024F010927E0110927D0180917D01909125
S11302D07E0126EC30E0F90120818C5F9E4FFC0109
S11302E0208380917D0190917E0120917D01309148
S11302F07E012C5F3E4FF9012081835F9E4FFC01FC
S1130300208380917D0190917E018C5F9E4FFC0142
S11303108081803398F080917D0190917E018C5F83
S11303209E4FFC0180818A3348F480917D01909135
S11303307E018C5F9E4F2EE6FC01208380917D011F
S113034090917E01019690937E0180937D0180912E
S11303508301909184010196909384018093830199
S113036080917601813001F580917D0190917E012B
S1130370835F9E4FFC01208180917D0190917E01DD
S1130380622F0E94F31000917D0110917E018091F3
S11303907D0190917E010E94EB10282FC80189579E
S11303A09E4FFC01208373C080917601823001F559
S11303B080917D0190917E01835F9E4FFC0120819D
S11303C080917D0190917E01622F0E94F310009133
S11303D07D0110917E0180917D0190917E010E94AA
S11303E0EB10282FC80180579E4FFC0120834FC07B
S11303F080917601833001F580917D0190917E0199
S1130400835F9E4FFC01208180917D0190917E014C
S1130410622F0E94F31000917D0110917E01809162
S11304207D0190917E010E94EB10282FC801875610
S11304309E4FFC0120832BC080917601843001F50E
S113044080917D0190917E01835F9E4FFC0120810C
S113045080917D0190917E01622F0E94F3100091A2
S11304607D0110917E0180917D0190917E010E9419
S1130470EB10282FC8018E559E4FFC01208307C026
S113048080917601853019F481E080937601000033
S1130490DF91CF91FF91EF91BF91AF919F918F9198
S11304A07F916F915F914F913F912F911F910F9188
S11304B00F9000925F000F901F9018951F920F925B
S11304C000905F000F9211242F933F934F935F93FB
S11304D06F937F938F939F93AF93BF93EF93FF9308
S11304E0CF93DF9300D0CDB7DEB7809172019091A6
S11304F0730101969093730180937201809170014E
S113050090917101019690937101809370012091F3
S113051002013091030186EA9EE0B9010E9487102E
S1130520CB019A838983209172013091730189816F
S11305309A812817390799F4809175010E946108FE
S11305401092730110927201809175018F5F8093F4
S1130550750180917501813110F0109275018091BF
S11305600201909103014F9738F08EE190E090934F
S11305700301809302010CC0809102019091030158
S1130580059730F485E090E0909303018093020195
S113059000000F900F90DF91CF91FF91EF91BF91E9
S11305A0AF919F918F917F916F915F914F913F9107
S11305B02F910F9000925F000F901F9018951F923B
S11305C00F9200905F000F9211242F933F938F930B
S11305D09F93EF93FF93CF93DF93CDB7DEB78091D3
S11305E07B0190917C018130910519F0029759F0BB
S11305F01FC0809102019091030101969093030121
S11306008093020115C088E890E0FC01808191810B
S1130610803A9F4060F488E890E028E830E0F901EF
S11306202081318128533F4FFC0131832083000016
S11306300000DF91CF91FF91EF919F918F913F91B6
S11306402F910F9000925F000F901F9018951F92AA
S11306500F9200905F000F9211242F933F938F937A
S11306609F93EF93FF93CF93DF93CDB7DEB7809142
S11306707B0190917C018130910519F0029759F02A
S11306801FC080910201909103010197909303018F
S11306908093020115C088E890E0FC01808191817B
S11306A0813D974060F088E890E028E830E0F90167
S11306B020813181285C3109FC01318320830000D1
S11306C00000DF91CF91FF91EF919F918F913F9126
S11306D02F910F9000925F000F901F9018951F921A
S11306E00F9200905F000F9211242F933F934F932A
S11306F05F936F937F938F939F93AF93BF93EF9386
S1130700FF93CF93DF931F92CDB7DEB789E290E0DA
S1130710FC018081807189838981803149F48091D1
S11307207001909171019093AC018093AB0108C06A
S113073080917001909171019093AE018093AD010D
S11307402091AB013091AC018091AD019091AE014B
S11307508217930730F52091AB013091AC01809161
S1130760AD019091AE01A901481B590BCA01880F34
S1130770991F9093B0018093AF018091AF01909144
S1130780B0019C0140E050E080E69AEEA0E0B0E0C9
S1130790BC01CD010E949B10DA01C9018093740150
S11307A030C02091AD013091AE018091AB019091A8
S11307B0AC018217930728F52091AD013091AE0169
S11307C08091AB019091AC01F901E81BF90BCF01C9
S11307D0880F991F9093B0018093AF018091AF016E
S11307E09091B0019C0140E050E080E69AEEA0E0D8
S11307F0B0E0BC01CD010E949B10DA01C9018093D5
S1130800740100000F90DF91CF91FF91EF91BF91A0
S1130810AF919F918F917F916F915F914F913F9194
S11308202F910F9000925F000F901F9018951F92C8
S11308300F9200905F000F9211248F939F93EF9378
S1130840FF93CF93DF9300D0CDB7DEB783E290E080
S1130850FC018081882F90E0807499279A83898392
S113086089819A81892B99F480917B0190917C01F3
S1130870019690937C0180937B0180917B01909100
S11308807C01049724F010927C0110927B010000FB
S11308900F900F90DF91CF91FF91EF919F918F91E6
S11308A00F9000925F000F901F901895CF93DF93E5
S11308B0CDB7DEB72D970FB6F894DEBF0FBECDBF10
S11308C00E94AB0B0E942B0D1D8285EC90E0FC0175
S11308D0108284EC90E02FEFFC01208381EC90E007
S11308E020E9FC01208382EC90E026E0FC012083D7
S11308F084E290E02FEBFC01208385E290E020E489
S1130900FC0120838AE290E020E8FC0120838BE252
S113091090E02CE2FC01208386E890E02FE33CE9A0
S1130920FC013183208380E890E022EAFC012083EB
S113093081E890E02AE1FC01208388E890E020ED42
S113094037E0FC01318320838AE890E020ED37E032
S1130950FC013183208384E490E022E0FC012083C5
S113096085E490E023E0FC01208387E490E029EF14
S1130970FC0120838EE690E022E0FC0120838CE7DA
S113098090E020E4FC0120838AE790E027EEFC015C
S113099020838BE790E0FC0110828EE790E02CE34B
S11309A0FC01208389E690E02AE0FC0120838DE3AA
S11309B090E023E0FC01208388E690E025E0FC0140
S11309C020838DE690E02DE630E0F901208120615E
S11309D0FC0120838BE690E02BE630E0F9012081D6
S11309E02064FC012083789488E890E0FC018081F5
S11309F09181805D97409C01ADECBCEC0E94BA10E3
S1130A00929582958F7089279F70892780937801AA
S1130A108091830190918401892B49F08091850113
S1130A20909186010196909386018093850180912F
S1130A308501909186010A974CF0809183019091F1
S1130A4084010196909384018093830180918301B2
S1130A50909184010A9774F00E9412091092860101
S1130A6010928501109284011092830110927E01EC
S1130A7010927D018EE790E02FE3FC0120831E821B
S1130A801F82188619861A861B861C861D8640912D
S1130A90700150917101CA01969587959C01A5E753
S1130AA0BAED0E94BA100024880F991F001C880F09
S1130AB0991F001C892F902D66E9689F9001699FFA
S1130AC0300D1124CA01821B930B892B09F0A5C098
S1130AD08091790190917A01892B09F046C08EE7C3
S1130AE090E02DE7FC0120838CE790E020E4FC01FA
S1130AF0208388E790E0FC0180819181CC01A0E013
S1130B00B0E0BC01CD010E94570FDC01CB012CE603
S1130B1031E248E45DE3BC01CD010E940E10DC012A
S1130B20CB0124EC32E440E251E4BC01CD010E944B
S1130B30B70EDC01CB018E839F83A887B9876E81B2
S1130B407F81888599850E94280FDC01CB018093E1
S1130B5000018EE790E02FE7FC01208381E090E024
S1130B6090937A018093790139C08EE790E02EE763
S1130B70FC0120838CE790E021E4FC01208388E7DA
S1130B8090E0FC0180819181CC01A0E0B0E0BC0147
S1130B90CD010E94570FDC01CB012CE638E74AEF68
S1130BA05DE3BC01CD010E940E10DC01CB018A87FC
S1130BB09B87AC87BD876A857B858C859D850E94D4
S1130BC0280FDC01CB01809301018EE790E02FE731
S1130BD0FC01208310927A01109279018091000126
S1130BE0833240F0809100018A3220F48091010127
S1130BF08C3350F48BE290E02BE230E0F901208159
S1130C002068FC01208309C08BE290E02BE230E0F5
S1130C10F90120812F77FC0120830E942B0D809104
S1130C207B0190917C018130910509F40EC18230E1
S1130C3091051CF4892B49F043C28230910509F4D3
S1130C4049C1039709F48BC13BC261E086E191E09D
S1130C500E945E0E80917401882F90E06BEA73E02D
S1130C600E94AF086AE080E00E94810E61E08BEA96
S1130C7093E00E945E0E6AE083E20E94810E61E0CE
S1130C8085E291E00E945E0E68E28DE20E94810E90
S1130C9061E089E291E00E945E0E80917F01909173
S1130CA08001892B31F180917D0190917E01892B06
S1130CB001F568E280E00E94810E81E090E09A8371
S1130CC089830EC089819A81835F9E4FFC01808154
S1130CD061E00E94AC0D89819A8101969A8389838F
S1130CE089819A81835F9E4FFC0180818A3351F709
S1130CF02AC068E280E00E94810E61E08EE291E009
S1130D000E945E0E80918101909182010997DCF02E
S1130D1010927E0110927D011C821B820CC08B817B
S1130D209C818C5F9E4F26ECFC0120838B819C81EF
S1130D3001969C838B838B819C81099784F3109209
S1130D4082011092810164E180E00E94810E809111
S1130D50700190917101893C910510F561E084E383
S1130D6091E00E945E0E64E183E20E94810E61E0E4
S1130D7088E391E00E945E0E6EE180E00E94810EA5
S1130D8061E084E391E00E945E0E6EE183E20E94E2
S1130D90810E61E080E491E00E945E0E0E94940E58
S1130DA04091700150917101CA019695879596956D
S1130DB08795969587959C01ABE7B4E10E94BA109C
S1130DC09695879568EC689F9001699F300D112472
S1130DD0CA01821B930B892B09F071C18091000118
S1130DE0882F90E06BEA73E00E94AF0864E180E032
S1130DF00E94810E61E08BEA93E00E945E0E64E142
S1130E0083E20E94810E61E088E391E00E945E0E1D
S1130E1080910101882F90E06BEA73E00E94AF0893
S1130E206EE180E00E94810E61E08BEA93E00E9413
S1130E305E0E6EE183E20E94810E61E080E491E047
S1130E400E945E0E0E94940E3AC161E086E491E035
S1130E500E945E0E80910201909103016BEA73E09F
S1130E600E94AF086AE080E00E94810E61E08BEA94
S1130E7093E00E945E0E6AE084E10E94810E61E0CC
S1130E8082E591E00E945E0E6AE083E20E94810E98
S1130E9061E085E591E00E945E0E80917801882FE3
S1130EA090E06BEA73E00E94AF0864E180E00E9486
S1130EB0810E61E08BEA93E00E945E0E64E183E2BE
S1130EC00E94810E61E08EE591E00E945E0E0E9418
S1130ED0940EF6C061E086E491E00E945E0E80917B
S1130EE00201909103016BEA73E00E94AF086AE08B
S1130EF080E00E94810E61E08BEA93E00E945E0E26
S1130F006AE083E20E94810E61E085E591E00E943F
S1130F105E0E80917801882F90E06BEA73E00E9466
S1130F20AF0864E180E00E94810E61E08BEA93E007
S1130F300E945E0E64E184E10E94810E61E082E51C
S1130F4091E00E945E0E64E183E20E94810E61E002
S1130F508EE591E00E945E0E0E94940EB1C061E0A5
S1130F6082E691E00E945E0E6AE08DE20E94810EAC
S1130F7061E089E291E00E945E0E6AE080E00E94F6
S1130F80810E9091760181E0913009F080E08093A8
S1130F90770110C080917701882F90E089579E4F88
S1130FA0FC01808161E00E94AC0D809177018F5F2C
S1130FB08093770180917701873060F364E18DE25B
S1130FC00E94810E61E089E291E00E945E0E64E17C
S1130FD080E00E94810E9091760181E0923009F0C8
S1130FE080E08093770110C080917701882F90E092
S1130FF080579E4FFC01808161E00E94AC0D80917E
S113100077018F5F8093770180917701873060F358
S11310106EE18DE20E94810E61E089E291E00E941E
S11310205E0E6EE180E00E94810E9091760181E077
S1131030933009F080E08093770110C080917701AC
S1131040882F90E087569E4FFC01808161E00E94CA
S1131050AC0D809177018F5F809377018091770148
S1131060873060F368E28DE20E94810E61E089E2DC
S113107091E00E945E0E68E280E00E94810E9091F1
S1131080760181E0943009F080E08093770110C00C
S113109080917701882F90E08E559E4FFC018081CE
S11310A061E00E94AC0D809177018F5F809377019E
S11310B080917701873060F30E94940E01C0000094
S11310C093CCCF93DF931F92CDB7DEB78983898109
S11310D0893088F48AE890E02981422F50E06AEF51
S11310E0649F9001659F300D11242053384FFC01FB
S11310F03183208314C08AE890E02981222F30E0D4
S113110041E150E0421B530B6AEF649F9001659FDD
S1131110300D11242053384FFC01318320838AE899
S113112090E0FC0180819181803D974051F48BE2F5
S113113090E02BE230E0F90120812068FC0120835B
S113114009C08BE290E02BE230E0F90120812F7797
S1131150FC01208300000F90DF91CF910895CF937D
S1131160DF9300D000D01F92CDB7DEB79B838A8374
S11311707D836C8319820DC08981882F90E02C8136
S11311803D81820F931F20E3FC01208389818F5FBF
S113119089838981833080F38C819D8102969D832C
S11311A08C834A815B819A01ADECBCEC0E94BA103D
S11311B0969587959695879596958795880F991F07
S11311C09C01220F331F220F331F820F931F9A019A
S11311D0281B390BC90120E3280F8C819D81FC0158
S11311E020838A819B819C01ADECBCEC0E94BA10E7
S11311F09695879596958795969587959B838A83EB
S11312008C819D8101979D838C838A819B81892B0D
S113121041F600000F900F900F900F900F90DF9108
S1131220CF910895CF93DF93CDB7DEB762970FB612
S1131230F894DEBF0FBECDBF1092800110927F01E3
S113124080910401882F90E0CB9709F0E5C180914B
S11312500501882F90E08E36910509F0DCC180915C
S11312600601882F90E08E36910529F08837910584
S113127009F43DC1CFC180910701882F90E08E36DB
S1131280910529F08837910509F49DC0C3C1809167
S11312900801882F90E08837910509F027C18091D3
S11312A00901882F90E08E36910509F08AC080915B
S11312B00A01882F90E08A33910509F45EC08E36C6
S11312C0910509F07DC080910B01882F90E08A334D
S11312D0910579F18E36910509F072C080910C0167
S11312E0882F90E0CA9709F047C081E090E090937E
S11312F0800180937F0110927E0110927D01809184
S113130076018F5F809376011A8219820CC08981DD
S11313109A818C5F9E4F26ECFC01208389819A81FF
S113132001969A83898389819A81099784F30000BD
S113133023C082E090E09093800180937F018091AC
S113134076018F5F8093760110927E0110927D0169
S11313501C821B820CC08B819C818C5F9E4F26EC6F
S1131360FC0120838B819C8101969C838B838B81E0
S11313709C81099784F3000023C0809176018F5FDC
S11313808093760189E090E09093800180937F01BF
S113139010927E0110927D011E821D820CC08D81EF
S11313A09E818C5F9E4F26ECFC0120838D819E8163
S11313B001969E838D838D819E81099784F300001D
S11313C00000000093C080910801882F90E08E36C1
S11313D0910509F08AC080910901882F90E08A3331
S11313E0910509F45EC08E36910509F07DC08091A7
S11313F00A01882F90E08A33910579F18E369105A0
S113140009F072C080910B01882F90E0CA9709F00F
S113141047C083E090E09093800180937F018091A6
S113142076018F5F8093760110927E0110927D0188
S113143018861F820CC08F8198858C5F9E4F26EC86
S1131440FC0120838F819885019698878F838F81F3
S11314509885099784F3000023C084E090E090937A
S1131460800180937F01809176018F5F8093760164
S113147010927E0110927D011A8619860CC089850E
S11314809A858C5F9E4F26ECFC01208389859A8582
S113149001969A87898789859A85099784F300003C
S11314A023C085E090E09093800180937F01809138
S11314B076018F5F8093760110927E0110927D01F8
S11314C01C861B860CC08B859C858C5F9E4F26ECEE
S11314D0FC0120838B859C8501969C878B878B855B
S11314E09C85099784F300000000000093C080915C
S11314F00701882F90E08E36910509F08AC080910B
S11315000801882F90E08A33910509F45EC08E3675
S1131510910509F07DC080910901882F90E08A33FC
S1131520910579F18E36910509F072C080910A0116
S1131530882F90E0CA9709F047C0809176018F5FA9
S11315408093760186E090E09093800180937F0100
S113155010927E0110927D011E861D860CC08D8521
S11315609E858C5F9E4F26ECFC0120838D859E8595
S113157001969E878D878D859E85099784F300004B
S113158023C0809176018F5F8093760187E090E09D
S11315909093800180937F0110927E0110927D01CF
S11315A0188A1F860CC08F8598898C5F9E4F26EC05
S11315B0FC0120838F8598890196988B8F878F856E
S11315C09889099784F3000023C0809176018F5F86
S11315D08093760188E090E09093800180937F016E
S11315E010927E0110927D011A8A198A0CC0898991
S11315F09A898C5F9E4F26ECFC01208389899A8905
S113160001969A8B898B89899A89099784F30000BA
S11316100000000000000000000062960FB6F8947D
S1131620DEBF0FBECDBFDF91CF9108951F93CF933F
S1131630DF9300D0CDB7DEB789836A8388E290E078
S113164028E230E0F90120812F7BFC0120838A818C
S1131650882351F088E290E028E230E0F90120810B
S11316602860FC01208309C088E290E028E230E091
S1131670F9012081277FFC01208310E03CC089818F
S1131680882F90E0212F30E047E050E0BA01621B40
S1131690730B9B0102C0959587952A95E2F781709B
S11316A09927892B51F088E290E028E230E0F90193
S11316B020812061FC01208309C088E290E028E2B7
S11316C030E0F90120812F7EFC01208388E290E044
S11316D028E230E0F90120812062FC01208388E2C5
S11316E090E028E230E0F90120812F7DFC01208385
S11316F0812F11E0180F183010F288E290E028E2F0
S113170030E0F90120812064FC01208300000F9067
S11317100F90DF91CF911F910895CF93DF931F9284
S1131720CDB7DEB7898360E089810E94160B000083
S11317300F90DF91CF910895CF93DF931F92CDB790
S1131740DEB7898361E089810E94160B00000F9047
S1131750DF91CF9108950F931F93CF93DF93CDB76C
S1131760DEB76C970FB6F894DEBF0FBECDBF87E22D
S113177090E027E230E0F90120812064FC0120831D
S113178087E290E027E230E0F90120812460FC0147
S1131790208387E290E027E230E0F901208128608D
S11317A0FC01208387E290E027E230E0F901208108
S11317B02061FC01208387E290E027E230E0F90118
S11317C020812062FC01208388E290E028E230E05E
S11317D0F90120812460FC01208388E290E028E262
S11317E030E0F90120812064FC01208380E090E056
S11317F0A0E2B1E489839A83AB83BC8320E030E028
S11318004AE753E469817A818B819C810E940E109E
S1131810DC01CB018B8B9C8BAD8BBE8B20E030E04D
S113182040E85FE36B897C898D899E890E94230F40
S113183088232CF481E090E0988F8F8B3FC020E0C8
S11318403FEF4FE757E46B897C898D899E890E941D
S1131850091018164CF520E030E040E251E46981AB
S11318607A818B819C810E940E10DC01CB01BC012A
S1131870CD010E94280FDC01CB01988F8F8B0FC004
S113188089E190E09A8F898F898D9A8D0197F1F77C
S11318909A8F898F8F89988D0197988F8F8B8F89D5
S11318A0988D892B69F714C06B897C898D899E89F1
S11318B00E94280FDC01CB01988F8F8B8F89988D24
S11318C09C8F8B8F8B8D9C8D0197F1F79C8F8B8FC9
S11318D088E290E028E230E0F90120812B7FFC01CE
S11318E0208380E090E0ACE8B2E48D839E83AF83F4
S11318F0B88720E030E04AE753E46D817E818F8130
S113190098850E940E10DC01CB0189879A87AB87EA
S1131910BC8720E030E040E85FE369857A858B8509
S11319209C850E94230F88232CF481E090E09E87FD
S11319308D873FC020E03FEF4FE757E469857A8504
S11319408B859C850E94091018164CF520E030E028
S113195040E251E46D817E818F8198850E940E1052
S1131960DC01CB01BC01CD010E94280FDC01CB01BD
S11319709E878D870FC089E190E0988B8F878F8534
S113198098890197F1F7988B8F878D859E850197AC
S11319909E878D878D859E85892B69F714C06985FF
S11319A07A858B859C850E94280FDC01CB019E875C
S11319B08D878D859E859A8B898B89899A890197D4
S11319C0F1F79A8B898B88E290E028E230E0F90104
S11319D020812460FC01208388E290E028E230E04A
S11319E0F90120812F7BFC01208381E20E948D0B71
S11319F083E10E948D0B86E00E948D0B82EC0E9495
S1131A008D0B80E20E948D0B89E00E948D0B80E893
S1131A100E948D0B80E40E948D0B00E010E005C055
S1131A2080E00E949C0B0F5F1F4F083FF1E01F07EF
S1131A30B8F388E00E948D0B8CE00E948D0B0000AF
S1131A406C960FB6F894DEBF0FBECDBFDF91CF9179
S1131A501F910F9108950F931F93CF93DF93CDB7E9
S1131A60DEB780E80E948D0B80E40E948D0B1092FB
S1131A70A9031092AA0300E010E007C0C8018F5424
S1131A809E4FFC0110820F5F1F4F083FF1E01F07BC
S1131A90A8F30000DF91CF911F910F910895CF9388
S1131AA0DF9300D000D01F92CDB7DEB78B836C8359
S1131AB04D838C81869586958695882F90E044E5A4
S1131AC0489F9001499F300D11248B81882F90E00D
S1131AD0820F931F8F549E4F9A8389838D8188230D
S1131AE0C9F089819A81FC018081482F8C81882FDB
S1131AF090E09C012770332781E090E002C0880FBA
S1131B00991F2A95E2F7842B282F89819A81FC0159
S1131B10208319C089819A81FC018081482F8C819E
S1131B20882F90E09C012770332781E090E002C069
S1131B30880F991F2A95E2F780958423282F89819D
S1131B409A81FC01208300000F900F900F900F905A
S1131B500F90DF91CF9108950F931F93CF93DF934D
S1131B6000D000D01F92CDB7DEB78C836D8310E018
S1131B7065C000E04EC08C81882F90E09C0120520B
S1131B8031099D81812F692F0E947B10482F50E0DD
S1131B90C901880F991F880F991F820F931F840F03
S1131BA0951F88599F4F9A83898389819A81FC0163
S1131BB084918B838B81282F30E09D81802F692F26
S1131BC00E947B10882F90E0A90102C0559547958B
S1131BD08A95E2F7CA0181709927892B61F0809177
S1131BE0AA03982F900F8091A903810F41E0692FD8
S1131BF00E944F0D0BC08091AA03982F900F8091E3
S1131C00A903810F40E0692F0E944F0D802F01E04E
S1131C10080F402F50E08D81282F30E0C901880F34
S1131C20991F880F991F880F991F821B930B4817C0
S1131C3059070CF4A0CF812F11E0180F412F50E069
S1131C408D81282F30E0C901880F991F880F991FB3
S1131C50820F931F481759070CF48BCF2091A903C7
S1131C609D81892F880F880F890F820F8F5F809342
S1131C70A9038091A903843570F01092A9032091DF
S1131C80AA039D81892F880F880F880F891B820FD3
S1131C908F5F8093AA038091AA03803320F010926F
S1131CA0A9031092AA0300000F900F900F900F90B9
S1131CB00F90DF91CF911F910F910895CF93DF93F0
S1131CC000D01F92CDB7DEB79A8389836B830CC093
S1131CD089819A819C012F5F3F4F3A832983FC01BC
S1131CE080816B810E94AC0D89819A81FC01808185
S1131CF0882371F700000F900F900F90DF91CF9120
S1131D000895CF93DF9300D0CDB7DEB789836A837C
S1131D1089818093A9038A818093AA0300000F908C
S1131D200F90DF91CF9108950F931F93CF93DF937B
S1131D30CDB7DEB780E80E948D0B80E40E948D0B46
S1131D4000E010E009C0C8018F549E4FFC0180815F
S1131D500E949C0B0F5F1F4F083FF1E01F0798F391
S1131D600000DF91CF911F910F9108955058BB2728
S1131D70AA270E94CE0E0C94CF0F0E94C10F38F0F8
S1131D800E94C80F20F039F49F3F19F426F40C94F4
S1131D90BE0F0EF4E095E7FB0C94B80FE92F0E94F8
S1131DA0E00F58F3BA17620773078407950720F00A
S1131DB079F4A6F50C9402100EF4E0950B2EBA2FCC
S1131DC0A02D0B01B90190010C01CA01A00111243D
S1131DD0FF27591B99F0593F50F4503E68F11A16E9
S1131DE0F040A22F232F342F4427585FF3CF46957A
S1131DF037952795A795F0405395C9F77EF41F169C
S1131E00BA0B620B730B840BBAF09150A1F0FF0F65
S1131E10BB1F661F771F881FC2F70EC0BA0F621F51
S1131E20731F841F48F4879577956795B795F79541
S1131E309E3F08F0B0CF9395880F08F09927EE0FD6
S1131E409795879508950E94940F08F481E008956A
S1131E500E94E80F88F09F5798F0B92F9927B7513F
S1131E60B0F0E1F0660F771F881F991F1AF0BA953A
S1131E70C9F714C0B13091F00E940210B1E0089586
S1131E800C940210672F782F8827B85F39F0B93F78
S1131E90CCF3869577956795B395D9F73EF49095ED
S1131EA08095709561957F4F8F4F9F4F0895E8946B
S1131EB009C097FB3EF490958095709561957F4F8E
S1131EC08F4F9F4F9923A9F0F92F96E9BB2793953C
S1131ED0F695879577956795B795F111F8CFFAF44C
S1131EE0BB0F11F460FF1BC06F5F7F4F8F4F9F4F7D
S1131EF016C0882311F096E911C0772321F09EE8DB
S1131F00872F762F05C0662371F096E8862F70E040
S1131F1060E02AF09A95660F771F881FDAF7880F1A
S1131F209695879597F90895990F0008550FAA0B70
S1131F30E0E8FEEF16161706E807F907C0F01216D8
S1131F401306E407F50798F0621B730B840B950BDB
S1131F5039F40A2661F0232B242B252B21F4089530
S1131F600A2609F4A140A6958FEF811D811D0895CD
S1131F7097F99F6780E870E060E008959FEF80EC38
S1131F80089500240A9416161706180609060895DB
S1131F9000240A9412161306140605060895092E41
S1131FA00394000C11F4882352F0BB0F40F4BF2BB0
S1131FB011F460FF04C06F5F7F4F8F4F9F4F0895F0
S1131FC057FD9058440F551F59F05F3F71F04795E6
S1131FD0880F97FB991F61F09F3F79F087950895CB
S1131FE0121613061406551FF2CF4695F1DF08C0EA
S1131FF0161617061806991FF1CF86957105610507
S113200008940895E894BB2766277727CB0197F9AE
S113201008950E94940F08F48FEF08950E942110F0
S11320200C94CF0F0E94C10F38F00E94C80F20F00B
S1132030952311F00C94B80F0C94BE0F11240C943A
S113204003100E94E00F70F3959FC1F3950F50E0C9
S1132050551F629FF001729FBB27F00DB11D639F56
S1132060AA27F00DB11DAA1F649F6627B00DA11DFC
S1132070661F829F2227B00DA11D621F739FB00DA2
S1132080A11D621F839FA00D611D221F749F332712
S1132090A00D611D231F849F600D211D822F762FAB
S11320A06A2F11249F5750409AF0F1F088234AF088
S11320B0EE0FFF1FBB1F661F771F881F91505040F4
S11320C0A9F79E3F510580F00C94B80F0C940310AF
S11320D05F3FE4F3983ED4F3869577956795B7957B
S11320E0F795E7959F5FC1F7FE2B880F911D969595
S11320F0879597F90895991B79E004C0991F96175D
S113210008F0961B881F7A95C9F780950895AA1B35
S1132110BB1B51E107C0AA1FBB1FA617B70710F0CE
S1132120A61BB70B881F991F5A95A9F78095909500
S1132130BC01CD010895052E97FB1EF400940E9466
S1132140B21057FD07D00E94C91007FC03D04EF40B
S11321500C94B21050954095309521953F4F4F4FB8
S11321605F4F089590958095709561957F4F8F4F3F
S11321709F4F0895A29FB001B39FC001A39F700D0C
S1132180811D1124911DB29F700D811D1124911D7B
S11321900895A1E21A2EAA1BBB1BFD010DC0AA1FA4
S11321A0BB1FEE1FFF1FA217B307E407F50720F0BC
S11321B0A21BB30BE40BF50B661F771F881F991F37
S11321C01A9469F760957095809590959B01AC0180
S11321D0BD01CF010895F999FECF92BD81BDF89A52
S11321E0992780B50895262FF999FECF1FBA92BD7D
S11321F081BD20BD0FB6F894FA9AF99A0FBE0196E4
S10922000895F894FFCFDD
S1132206235A1E00C6C6C6C6C6C6C6C6C6C6C6C6E1
S1132216C6C6C6C6C6C653696E6169732056697456
S11322266169733A0042504D006D6D4867006572EE
S1132236726F72002D2D2D0043656C7369757300E2
S11322462553704F3200506172616D6574726F73FD
S11322563A002D3E00526573702F4D696E00254F6E
S113226632004461646F732053616C766F733A0075
S9030000FC
